{
  "transactions": [
    {
      "hash": "0x64850ceb900b1a44d9c78aae0e5aad6b8d451dd8be3478c5279e60dc6a44c2f0",
      "transactionType": "CALL",
      "contractName": null,
      "contractAddress": "0x779877a7b0d9e8603169ddbd7836e478b4624789",
      "function": "transferAndCall(address,uint256,bytes)",
      "arguments": [
        "0x9DdfaCa8183c41ad55329BdeeD9F6A8d53168B1B",
        "3000000000000000000",
        "0x8f078c2ce9d709b0ab4f8c5bf79d6b2d6d0907b9e6cce3f562dbbb00226fc47c"
      ],
      "transaction": {
        "from": "0x44ca007ede91d6b69b5e90a8d95f27dfadd344a3",
        "to": "0x779877a7b0d9e8603169ddbd7836e478b4624789",
        "gas": "0x1603d",
        "value": "0x0",
        "input": "0x4000aea00000000000000000000000009ddfaca8183c41ad55329bdeed9f6a8d53168b1b00000000000000000000000000000000000000000000000029a2241af62c0000000000000000000000000000000000000000000000000000000000000000006000000000000000000000000000000000000000000000000000000000000000208f078c2ce9d709b0ab4f8c5bf79d6b2d6d0907b9e6cce3f562dbbb00226fc47c",
        "nonce": "0x0",
        "chainId": "0xaa36a7"
      },
      "additionalContracts": [],
      "isFixedGasLimit": false
    }
  ],
  "receipts": [
    {
      "status": "0x1",
      "cumulativeGasUsed": "0x166b7c2",
      "logs": [
        {
          "address": "0x779877a7b0d9e8603169ddbd7836e478b4624789",
          "topics": [
            "0xddf252ad1be2c89b69c2b068fc378daa952ba7f163c4a11628f55a4df523b3ef",
            "0x00000000000000000000000044ca007ede91d6b69b5e90a8d95f27dfadd344a3",
            "0x0000000000000000000000009ddfaca8183c41ad55329bdeed9f6a8d53168b1b"
          ],
          "data": "0x00000000000000000000000000000000000000000000000029a2241af62c0000",
          "blockHash": "0x1bf09b099c357dbdd5885aa8ab5db0e0cc73c90a59eb0ae1abed4bedf09fad03",
          "blockNumber": "0xa1aa0f",
          "blockTimestamp": "0x69d238e8",
          "transactionHash": "0x64850ceb900b1a44d9c78aae0e5aad6b8d451dd8be3478c5279e60dc6a44c2f0",
          "transactionIndex": "0x86",
          "logIndex": "0x2db",
          "removed": false
        },
        {
          "address": "0x779877a7b0d9e8603169ddbd7836e478b4624789",
          "topics": [
            "0xe19260aff97b920c7df27010903aeb9c8d2be5d310a2c67824cf3f15396e4c16",
            "0x00000000000000000000000044ca007ede91d6b69b5e90a8d95f27dfadd344a3",
            "0x0000000000000000000000009ddfaca8183c41ad55329bdeed9f6a8d53168b1b"
          ],
          "data": "0x00000000000000000000000000000000000000000000000029a2241af62c0000000000000000000000000000000000000000000000000000000000000000004000000000000000000000000000000000000000000000000000000000000000208f078c2ce9d709b0ab4f8c5bf79d6b2d6d0907b9e6cce3f562dbbb00226fc47c",
          "blockHash": "0x1bf09b099c357dbdd5885aa8ab5db0e0cc73c90a59eb0ae1abed4bedf09fad03",
          "blockNumber": "0xa1aa0f",
          "blockTimestamp": "0x69d238e8",
          "transactionHash": "0x64850ceb900b1a44d9c78aae0e5aad6b8d451dd8be3478c5279e60dc6a44c2f0",
          "transactionIndex": "0x86",
          "logIndex": "0x2dc",
          "removed": false
        },
        {
          "address": "0x9ddfaca8183c41ad55329bdeed9f6a8d53168b1b",
          "topics": [
            "0x1ced9348ff549fceab2ac57cd3a9de38edaaab274b725ee82c23e8fc8c4eec7a",
            "0x8f078c2ce9d709b0ab4f8c5bf79d6b2d6d0907b9e6cce3f562dbbb00226fc47c"
          ],
          "data": "0x000000000000000000000000000000000000000000000001158e460913d000000000000000000000000000000000000000000000000000013f306a2409fc0000",
          "blockHash": "0x1bf09b099c357dbdd5885aa8ab5db0e0cc73c90a59eb0ae1abed4bedf09fad03",
          "blockNumber": "0xa1aa0f",
          "blockTimestamp": "0x69d238e8",
          "transactionHash": "0x64850ceb900b1a44d9c78aae0e5aad6b8d451dd8be3478c5279e60dc6a44c2f0",
          "transactionIndex": "0x86",
          "logIndex": "0x2dd",
          "removed": false
        }
      ],
      "logsBloom": "0x00000004000000000000000000020000000000000020000000000000020000000000000000000000000000000000000000000000000000000000000000000000000000000000000000000008000000000000000000000000000020000020000008000000000000000000000000000000000000000000000000000010000040100000000000000000000000010000800000000020000000000000000000000000000000000000000000000000010000000000000000000008010404000000000000000002000000000000000000000000000000000000080100000000000000000010000000000000800000000000000000000000000000000000000000000000",
      "type": "0x2",
      "transactionHash": "0x64850ceb900b1a44d9c78aae0e5aad6b8d451dd8be3478c5279e60dc6a44c2f0",
      "transactionIndex": "0x86",
      "blockHash": "0x1bf09b099c357dbdd5885aa8ab5db0e0cc73c90a59eb0ae1abed4bedf09fad03",
      "blockNumber": "0xa1aa0f",
      "gasUsed": "0xf0d9",
      "effectiveGasPrice": "0x1b7059",
      "from": "0x44ca007ede91d6b69b5e90a8d95f27dfadd344a3",
      "to": "0x779877a7b0d9e8603169ddbd7836e478b4624789",
      "contractAddress": null
    }
  ],
  "libraries": [],
  "pending": [],
  "returns": {},
  "timestamp": 1775384809774,
  "chain": 11155111,
  "commit": "97978b5"
}